:020000040800F2
:10000000680500200101000895100008050D000892
:10001000E70E000859070008751F000800000000DF
:10002000000000000000000000000000691300084C
:100030005D070008000000001112000855140008B8
:100040001B0100081B0100081B0100081B01000820
:100050001B0100081B0100081B0100081B01000810
:100060001B0100081B0100081B0100081B01000800
:100070001B0100081B0100081B0100081B010008F0
:100080001B0100081B0100081B0100081B010008E0
:100090001B0100081B0100081B010008C90700081C
:1000A0001B0100081B0100081B0100081B010008C0
:1000B0000517000829170008511700081B01000840
:1000C0001B0100081B0100081B0100081B010008A0
:1000D0001B0100081B0100081B0100081B01000890
:1000E0001B0100081B0100081B010008DFF80CD0F1
:1000F00000F020FB004800479D2200086805002012
:100100000648804706480047FEE7FEE7FEE7FEE7B1
:10011000FEE7FEE7FEE7FEE7FEE7FEE76514000800
:10012000ED000008F0B480EA0102D40F4200B2EB07
:10013000410F02D20246084611464A0042D0C30D82
:10014000DDB2C1F3C752AD1A202D35DAC1F3160165
:1001500041F4000204B15242C5F1200602FA06F150
:100160002A411044B3EBD05F23D0C4B1012DA0EBE2
:10017000C35009DCF0BC4FF0004202EAC352DBB2CC
:1001800000F5000000F04BBA400000F1807000EB79
:10019000C350A0F1807040EAD170490009E04908DD
:1001A00041EAC071A0EBC35000F50000400800EB2D
:1001B000C350F0BC00F02ABA6142012202EB4101B7
:1001C000001BF6E7F0BC704781F00041AAE780F021
:1001D0000040A7E72DE9FE4F804681EA0300C00FEB
:1001E0000C46009021F0004123F00045B8EB0200DE
:1001F000A94105D24046214690461C460B46024680
:1002000023F00040104347D0270DC7F30A00C3F383
:100210000A510290401A019040286BDAC3F3130090
:1002200040F4801B0098924620B10023D2EB030AD1
:1002300063EB0B0B01985946C0F14002504600F0A9
:10024000B4F906460D4650465946019A00F0CCF9DD
:1002500010EB08006141002487EA115284EAE77339
:100260001A4340D0009A62B3019A012A4FEA07521A
:1002700015DC001B61EB02014FF0004202EA07525D
:10028000CDE90042001C41F5801132462B4600F0BA
:1002900003FA03B0BDE8F08F40462146F9E7001BA2
:1002A00061EB0201001C41F5801300185B4120182E
:1002B000A2F5001747EB030140EAD570B6196D416E
:1002C00011E06D084FEA360645EAC0754FEA07525D
:1002D000001B61EB0201001C41F5801149084FEA47
:1002E00030000019514132462B4603B0BDE8F04FB3
:1002F00000F0C3B90098012240000023D0EB0202B5
:1003000063EBE073009821464FEAE074B8EB00001D
:1003100061EB0401E9E783F000435BE781F0004112
:1003200058E72DE9FE4F81EA030404F0004421F070
:10033000004100944FF0000B23F0004350EA010409
:100340005ED052EA03045BD0C3F30A54C1F30A55EA
:100350002C44A4F2F3340194A0FB0254C1F3130122
:1003600041F48011C3F3130343F4801301FB0244EF
:1003700000FB034E840A970A44EA815447EA8357F4
:10038000A4FB076802958D0A05FB07854FEA932CAD
:1003900004FB0C542705029D4FEA065847EA16371E
:1003A000B5EB08056EEB070C870E920E47EA811736
:1003B00042EA8312A7FB0201B6EB0B0164EB0004D7
:1003C0002B0D43EA0C335E1844EB1C50DA465146C1
:1003D000E7FB0201C5F313044FEA0B3343EA14535E
:1003E0004FEA0432019C43EA0603A4F10C04029490
:1003F000009CCDE900B400F04FF903B0BDE8F08FE8
:1004000000200146F9E72DE9F04D81EA030404F0EC
:10041000004B21F0004514464FF0000A23F0004144
:1004200050EA050220D054EA01021DD0C5F30A5754
:100430000246C5F31303C1F31300C1F30A5640F497
:10044000801543F48013A7EB0608101BD64608F26C
:10045000FD3873EB050002D308F1010801E09218A2
:100460005B41B8F1000F03DA00200146BDE8F08DD2
:1004700000204FF48011064684460EE0171B73EBF4
:10048000050705D3121B63EB050306434CEA010C79
:1004900049084FEA300092185B4150EA0107EDD15C
:1004A00052EA030012D082EA040083EA05010843FD
:1004B00005D0101BAB4106D20122002306E000222A
:1004C0004FF0004302E06FF0010253101AEB0600F8
:1004D0004CEB085110EB0A0041EB0B01BDE8F04D6D
:1004E00000F0CBB8C10F80EAE0700844CA07962339
:1004F000002100F094B80EB5C10F80EAE070084406
:10050000CA07002140F233438DE80E000A460B462D
:1005100000F0C2F803B000BD20F00040C10DC0F3F0
:10052000160040F400007F2901DA00207047962968
:1005300003DCC1F19601C840704796398840704786
:1005400070B5C1F30A5201F000450024C1F3130154
:1005500040F2FF3341F480119A4201DA002070BD6D
:1005600040F233439A42A2F2334203DC524200F09B
:100570002BF800E090402C43F1D0404270BD30B5E4
:100580000B46014600202022012409E021FA02F551
:100590009D4205D303FA02F5491B04FA02F52844EB
:1005A000151EA2F10102F1DC30BD202A04DB203A45
:1005B00000FA02F1002070479140C2F1200320FAB6
:1005C00003F3194390407047202A04DB203A21FAB4
:1005D00002F00021704721FA02F3D040C2F120025C
:1005E0009140084319467047202A06DBCB17203A72
:1005F00041FA02F043EAE07306E041FA02F3D04028
:10060000C2F1200291400843194670470029A8BF53
:100610007047401C490008BF20F00100704710B42B
:10062000B0FA80FC00FA0CF050EA010404BF10BCE0
:10063000704749B1CCF1200421FA04F411FA0CF10D
:1006400018BF012121430843A3EB0C01CB1D4FEA46
:1006500000614FEA102042BF002010BC704700EB41
:10066000C35010440029A4BF10BC7047401C49006F
:1006700008BF20F0010010BC704710B5141E73F1C4
:10068000000408DA401C41F1000192185B411A4352
:1006900001D120F0010010BD2DE9F04D92469B469E
:1006A00011B1B1FA81F202E0B0FA80F22032904644
:1006B000FFF77BFF04460F4640EA0A0041EA0B01C0
:1006C00053465A46084313D0114653EA010019D045
:1006D000C8F140025046FFF777FF05460E465046E8
:1006E00059464246FFF761FF084305D0012004E068
:1006F00020463946BDE8F08D0020054346EAE07605
:100700002C4337430A986305E40AA0EB0800002253
:10071000FD0A44EA47540A3002D500200146E9E7C1
:10072000010510196941DDE9084500196941BDE875
:10073000F04DA2E7064C074D06E0E06840F00103EB
:1007400094E8070098471034AC42F6D3FFF7D2FC88
:10075000FC2300081C24000800BFFEE770470000CF
:100760000349086000BF024909680029FBD17047AE
:100770004800002010B50121052000F06BFD80200D
:100780000E490880032088704820C8700C4800F08B
:10079000BDF90721002000F099F9802000F04CF805
:1007A000002008490871802008600C204871012051
:1007B0008871084600F05AF810BD000004000020BF
:1007C000000801400800002010B5802000F03AF831
:1007D00050B3802000F030F84021144800F021FA96
:1007E00050B913480068323811490860084600685B
:1007F000002801DA0020086040210C4800F011FABE
:1008000001280DD10A4800683230094908600846BD
:10081000006841F27C51884202DB084604490860C6
:10082000034800680349086010BD0000000801404B
:100830007000002018000020014908607047000087
:1008400014040140014600200022074B1B6803EA04
:100850000102054B14331B680B4013B10AB1012090
:1008600000E00020704700000004014000212349FF
:100870008279002A3AD00A46126803689A430B46E6
:100880001A600A1D126803689A430B1D1A600279E8
:1008900011440A6803681A430A60184A0832126849
:1008A00003689A43154B08331A601A1D12680368CF
:1008B0009A43124B0C331A604279102A0ED11A1F38
:1008C000126803681A430D4B08331A601A1D126828
:1008D00003681A43094B0C331A600DE0074942794B
:1008E00011440A6803681A430A6005E0027911445A
:1008F0000A6803689A430A607047000000040140D8
:1009000070B54FF0804001F072F8224909684FF449
:10091000803202FB010020490880084600881F49F8
:10092000098888420CDD1C4909881C4A1288881AEB
:10093000FFF7D8FD0446FFF7EFFD1949088019E0DD
:100940001548008815490988884210DA1249098833
:10095000124A1288881AFFF7C5FD05460021FFF7E5
:1009600036FC0446FFF7D8FD0D49088002E0002060
:100970000B4908800A48008841F2707148434FF4DF
:10098000C87190FBF1F007490860034800880349EB
:10099000088070BD60000020560000205800002034
:1009A0005A0000201000002010B5154800F00AFF82
:1009B0000121042000F02EFC002012494880C8804C
:1009C0006320888041F61F400880002008720C4890
:1009D00001F00AF901210A4800F0D8FE0021084878
:1009E00001F0D3F801221146054801F06BF801210E
:1009F000034800F0D7FE0121014800F0D6FE10BDEB
:100A000000080040E000002010B50121084600F079
:100A100001FC00201A49C88048804FF6FF7088808A
:100A200001200880002008724FF0804001F0DCF8BF
:100A30000420144908800020C880022048800F202C
:100A4000088101208880800700F0E6FF02231A4613
:100A50000121880700F0AAFF00214FF0804001F03B
:100A600094F80121880700F0A0FE0121880700F01A
:100A700099FE01221146900701F024F810BD0000F4
:100A8000E0000020FA00002010B50121042000F051
:100A9000E1FB03200B4908804820C87003208870C0
:100AA000094800F033F80121042000F0D3FBC020F6
:100AB000044908804820C87003208870024800F06C
:100AC00025F810BD040000200008014030B50022C8
:100AD0008B071C0F0F2303FA04F20B4B8C1053F8F7
:100AE00024309343084C8D1044F8253023468C1055
:100AF00053F824308C07240F00FA04F42343024CEB
:100B00008D1044F8253030BD080001402DE9F0413A
:100B1000024600250026002000230024002791F82B
:100B200003C00CF00F0591F803C00CF0100CBCF1E1
:100B3000000F03D091F802C04CEA050591F800C0FF
:100B4000BCF1000F31D0146800202BE04FF0010CF5
:100B50000CFA00F3B1F800C00CEA03069E4220D163
:100B600083004FF00F0C0CFA03F7BC4305FA03FCAB
:100B70004CEA040491F803C0BCF1280F06D14FF0F1
:100B8000010C0CFA00FCC2F814C00AE091F803C092
:100B9000BCF1480F05D14FF0010C0CFA00FCC2F873
:100BA00010C0401C0828D1D31460B1F800C0BCF1BB
:100BB000FF0F34DD546800202EE000F1080C4FF0E8
:100BC000010808FA0CF3B1F800C00CEA03069E42D3
:100BD00021D183004FF00F0C0CFA03F7BC4305FA48
:100BE00003FC4CEA040491F803C0BCF1280F05D1C2
:100BF00000F1080C08FA0CF8C2F8148091F803C050
:100C0000BCF1480F07D100F1080C4FF0010808FAB9
:100C10000CF8C2F81080401C0828CED35460BDE800
:100C2000F0810246002093680B400BB1012000E0E8
:100C30000020704708B50121084600F00BFB012198
:100C4000042000F007FB4FF40070ADF80000032013
:100C50008DF8020018208DF8030069462748FFF739
:100C600055FF4FF48060ADF8000003208DF80200BE
:100C700004208DF8030069462048FFF747FF012153
:100C8000042000F0E7FA0420ADF8000003208DF8FE
:100C9000020018208DF8030069461848FFF736FF58
:100CA0000820ADF8000003208DF8020004208DF824
:100CB000030069461148FFF729FF0121082000F0D1
:100CC000C9FA4FF48060ADF8000003208DF80200EF
:100CD00018208DF8030069460948FFF717FF4FF405
:100CE0000060ADF8000003208DF8020004208DF8AC
:100CF000030069460248FFF709FF08BD00080140EC
:100D0000000C014000BFFEE770B50246002400253C
:100D100000230020958A138B1B0445EA030626F066
:100D20007F4404EA01068E4201D1012000E0002048
:100D300070BD21B1028842F00102028004E0028805
:100D40004FF6FE731A400280704721B1028842F4C8
:100D50008072028004E002884FF6FF631A4002802E
:100D6000704721B1028842F40072028004E00288D8
:100D70004FF6FF531A400280704700002DE9F04300
:100D800085B004460D460026B1460427DFF8CC8026
:100D9000A6884FF6C0700640684600F07BFADDF882
:100DA00008802F48B8FBF0F01FFA80F946EA0906E0
:100DB000A68020884FF6FE71084020800026294931
:100DC000286888420CD828684000B8FBF0F087B249
:100DD000042F00DA04273E4309F10100208427E0B4
:100DE000E8884BF6FF71884206D1286800EB400086
:100DF000B8FBF0F087B209E0286800EBC00101EB16
:100E00000010B8FBF0F087B247F48047C7F30B003F
:100E100008B947F0010747F4004006434FF49670C5
:100E200009FB00F04FF47A7190FBF1F0401C208434
:100E3000A683208840F00100208026884FF6F530F8
:100E40000640A8886989084306432680A88929891D
:100E50000843208105B0BDE8F083000000127A004D
:100E600040420F00A086010010B50121480500F0A6
:100E7000D1F90121082000F0EDF9C0200F490880C8
:100E8000032088701C20C8700D48FFF73FFE00202B
:100E90000C4988804BF6FF70C8800020088148818B
:100EA0004FF480408881084808600848FFF766FFD3
:100EB00001210648FFF73DFF10BD0000040000209F
:100EC000000C014004010020A086010000540040F5
:100ED00012B141F0010102E04FF6FE7319400182A8
:100EE00070470182704700BFFEE700002DE9FC4714
:100EF00082464948C0F800A001460968474A12687E
:100F0000881AFFF7F8FA464A1060516010460268E6
:100F10004368444908684968FFF703FA424A106089
:100F200051604248026843683D4908684968FFF7D4
:100F3000F2F904463E48026843682046FFF7F1F99B
:100F4000064600223B4BFFF7ECF93B4A106051602C
:100F5000334802684368394908684968FFF7E1F98E
:100F600006460022364BFFF7DCF904460022354BDB
:100F7000FFF749FA80463448026843684046FFF765
:100F800029F9314A106051602B48026843682649AC
:100F900008684968FFF71EF980462B4802684368D5
:100FA0004046FFF717F904460D4628480068FFF74A
:100FB000A2FA064622462B46FFF70CF9CDE90001BE
:100FC000FFF7BEFA21490860154801684068174AD2
:100FD000116050601D48006800280ADD1B48006849
:100FE00043F69821884204DA1849096888B200F06B
:100FF000EFF81648006843F69821884202DB481E45
:101000001249086011480068002802DC00200F49DE
:101010000860BDE8FC870000D4000020100000201C
:10102000A80000207800002090000020B0000020E0
:101030008000002000005940980000208800002017
:101040000000244000408F40A0000020DC00002071
:1010500010B50121082000F0FDF802200B4908809E
:101060001020C870032088700948FFF74FFD012148
:10107000082000F0EFF80120044908801820C8700B
:10108000032088700248FFF741FD10BD04000020D6
:10109000000C01407047000010B54FF4A06000F054
:1010A0005FF81C20114908700220487000208870E9
:1010B0000120C870084600F01BF81E200B4908707C
:1010C0000020487088700120C870084600F010F8B1
:1010D0001720064908700120487000208870012000
:1010E000C870084600F004F810BD000000000020A1
:1010F00070B5002100230F22C47804B3154C246876
:1011000004F4E064C4F5E064210AC1F10403CA40B8
:10111000447804FA03F184781440214309010E4C09
:101120000678A155047804F01F050124AC40057829
:101130006D11AD0005F1E025C5F8004109E0047826
:1011400004F01F050124AC40044D0678761145F8E3
:10115000264070BD0CED00E000E400E080E100E01E
:1011600002490143024A1160704700000000FA057D
:101170000CED00E010B504460121022000F04AF811
:1011800004201049088043F6972088800020C880FA
:1011900048800D4800F028FD60200C49088001209F
:1011A000488000204881601EC880074800F094FCF9
:1011B0000821054800F0E0FC0021034800F0F5FAA2
:1011C00010BD0000E000002000040040EA00002004
:1011D00010B5044600210C4800F0E7FA60200B49E6
:1011E00008800120488000204881601EC880064891
:1011F00000F072FC0821044800F0BEFC0121024806
:1012000000F0D3FA10BD000000040040EA00002006
:101210007047000029B1064AD2690243044BDA61E3
:1012200004E0034AD2698243014BDA61704700004F
:101230000010024029B1064A12690243044B1A61A8
:1012400004E0034A12698243014B1A6170470000AF
:101250000010024029B1064A92690243044B9A6188
:1012600004E0034A92698243014B9A61704700008F
:101270000010024029B1064AD2680243044BDA60EA
:1012800004E0034AD2688243014BDA6070470000F1
:101290000010024030B500210022002400232D4D13
:1012A0006D6805F00C0121B1042905D0082923D16E
:1012B00005E0294D056022E0274D05601FE0254D22
:1012C0006D6805F47012234D6D6805F480340225B5
:1012D00005EB92421CB9214D554305600BE01D4DB5
:1012E0006D6805F400351DB11C4D5543056002E0E5
:1012F000194D5543056002E0174D056000BF00BF62
:10130000144D6D6805F0F0010909154D6B5C056819
:10131000DD4045600F4D6D6805F4E061090A104D30
:101320006B5C4568DD4085600A4D6D6805F4605171
:10133000C90A0B4D6B5C4568DD40C560054D6D68A5
:1013400005F44041890B074D6B5CC568B5FBF3F5AF
:10135000056130BD0010024000127A0000093D0016
:101360003400002044000020704710B500F002F85F
:1013700010BD00000CB500200190009033480068BB
:1013800040F480303149086000BF3048006800F404
:10139000003000900198401C0190009818B9019805
:1013A000B0F5A06FF1D12948006800F4003010B109
:1013B0000120009001E0002000900098012843D116
:1013C0002348006840F01000214908600846006882
:1013D00020F0030008600846006840F00200086042
:1013E0001A484068194948600846406848600846FD
:1013F000406840F4806048600846406820F47C10F3
:1014000048600846406840F4E810486008460068B4
:1014100040F08070086000BF0C48006800F0007069
:101420000028F9D00948406820F0030007494860C7
:101430000846406840F00200486000BF034840682A
:1014400000F00C000828F9D10CBD0000001002408B
:101450000020024002480068401E014908607047B1
:101460004800002010B51348006840F00100114901
:10147000086008464068104908400E494860084620
:1014800000680E4908400B4908600846006820F4CF
:10149000802008600846406820F4FE0048604FF451
:1014A0001F008860FFF761FF4FF00060044908608B
:1014B00010BD0000001002400000FFF8FFFFF6FE24
:1014C00008ED00E0F0B50C46154600220021068C20
:1014D0004FF6FE773E400684028B018C4FF60C7669
:1014E00032407E1C06EA03162E433243104EB042B1
:1014F0000ED0104EB0420BD0B0F1804F08D00E4E3F
:10150000B04205D00D4EB04202D00D4EB04206D1D1
:101510004FF6FD76314044F00106314305E04FF6C9
:10152000F576314044F00106314302830184F0BD79
:10153000002C01400034014000040040000800403D
:10154000000C0040F0B50C46154600220021002694
:10155000078C4FF6EF7C07EA0C070784028B018C9F
:101560004FF6FF7707EA041640F6FF473A404FF67A
:10157000FF7707EA03373A434FF6FF7707EA052775
:101580003A43114FB8420ED0104FB8420BD0B0F1D1
:10159000804F08D00E4FB84205D00E4FB84202D04F
:1015A0000D4FB84206D14FF6DF77394046F01007AD
:1015B000394305E04FF65F77394044F0100739436F
:1015C00002830184F0BD0000002C01400034014082
:1015D0000004004000080040000C0040F0B50C463C
:1015E0001546002200210026078C4FF6FF6C07EA03
:1015F0000C070784828B018C4FF6FF7707EA0426DD
:101600004FF60C773A404FF6FF7707EA03172F4360
:101610003A43114FB8420ED0104FB8420BD0B0F140
:10162000804F08D00E4FB84205D00E4FB84202D0BE
:101630000D4FB84206D14FF6FF57394046F4807738
:10164000394305E04FF2FF57394044F4807739437E
:1016500082830184F0BD0000002C01400034014071
:101660000004004000080040000C0040F0B50C46AB
:101670001546002200210026078C4EF6FF7C07EA63
:101680000C070784828B018C4FF6FF7707EA04363C
:1016900040F6FF473A404FF6FF7707EA05273A43FF
:1016A0004FF6FF7707EA03373A43114FB8420ED09F
:1016B000104FB8420BD0B0F1804F08D00E4FB84257
:1016C00005D00E4FB84202D00D4FB84206D14DF6AC
:1016D000FF77394046F48057394305E047F6FF5716
:1016E000394044F48057394382830184F0BD0000BF
:1016F000002C01400034014000040040000800407C
:10170000000C004010B50121880700F073F940B1CA
:101710000121880700F046F802480068401C014992
:10172000086010BD6000002010B50121064800F0DF
:1017300061F940B10121044800F034F80348006821
:10174000401C0249086010BD0004004068000020F1
:1017500010B501210A4800F04DF978B1012108487F
:1017600000F020F8FFF7CCF806480078401C054947
:1017700008700549098888B2FFF7B8FB10BD000062
:1017800000080040140000201800002021B1028849
:1017900042F08002028004E002884FF67F731A4014
:1017A00002807047CA430282704721B1028842F02A
:1017B0000102028004E002884FF6FE731A400280A4
:1017C0007047000010B504466848844208D10121E2
:1017D000C014FFF74FFD0021E014FFF74BFDC4E0FC
:1017E000B4F1804F08D101210846FFF723FD002105
:1017F0000120FFF71FFDB8E05D48844208D10121B8
:101800000220FFF717FD00210220FFF713FDACE0D7
:101810005848844208D101210420FFF70BFD002124
:101820000420FFF707FDA0E05348844208D10121BE
:101830000820FFF7FFFC00210820FFF7FBFC94E0E5
:101840004E48844208D101211020FFF7F3FC00210B
:101850001020FFF7EFFC88E04948844208D10121BD
:101860002020FFF7E7FC00212020FFF7E3FC7CE0CD
:101870004448844208D101214014FFF7FBFC0021B9
:101880006014FFF7F7FC70E03F48844209D1012162
:10189000C804FFF7EFFC00214FF40020FFF7EAFC3B
:1018A00063E03A48844209D101210805FFF7E2FCD0
:1018B00000214FF48010FFF7DDFC56E034488442ED
:1018C00009D101214805FFF7D5FC00214FF4001094
:1018D000FFF7D0FC49E02F48844208D10121402085
:1018E000FFF7A8FC00214020FFF7A4FC3DE02A48B8
:1018F000844208D101218020FFF79CFC0021802038
:10190000FFF798FC31E02548844208D10121801579
:10191000FFF790FC0021A015FFF78CFC25E0204884
:10192000844209D101210804FFF7A4FC00214FF4EF
:101930008030FFF79FFC18E01A48844209D101214A
:101940004804FFF797FC00214FF40030FFF792FCAA
:101950000BE01548844208D101218804FFF78AFC76
:1019600000214FF48020FFF785FC10BD002C0140C2
:101970000004004000080040000C0040001000403F
:101980000014004000340140004C01400050014070
:101990000054014000180040001C0040002000409E
:1019A000004001400044014000480140F0B50C46B1
:1019B00015461E460021002200230189028B038C5C
:1019C0004FF6F877394021434FF6FC473A4040F252
:1019D00001173A434FF6DD773B404FF6FF7707EAB2
:1019E00006172F433B43018102830384F0BD014668
:1019F000888C704730B50246002000230024158AE9
:101A000005EA0103958905EA010413B10CB101202F
:101A100000E0002030BD000070B505460C462448AB
:101A200085420ED0234885420BD0B5F1804F08D0B7
:101A30002148854205D02148854202D02048854270
:101A400000D100E000BF208850B92389A2886188B6
:101A50002846FFF737FDE188284600F098F825E092
:101A6000208804280AD12389A28861882846FFF7A4
:101A700069FDE188284600F093F817E020880828DF
:101A80000AD12389A28861882846FFF7A7FDE1884B
:101A9000284600F092F809E02389A2886188284648
:101AA000FFF7E4FDE188284600F090F870BD0000E3
:101AB000002C0140003401400004004000080040B8
:101AC000000C00401AB183890B43838102E08389B3
:101AD0008B4383817047000070B5002400220023EF
:101AE000058C4FF6FF6635400584028C8388848B15
:101AF0004FF68F752C404FF6FC752C400D882C430B
:101B00004FF6FF552A400D894FF6FF7606EA052568
:101B10002A434D8806EA05252A43154DA84202D0DE
:101B2000144DA8421DD14FF2FF752A404D894FF642
:101B3000FF7606EA05252A434FF6FF352A408D88B1
:101B400006EA05252A434EF6FF752B404DF6FF7534
:101B50002B408D8906EA05152B43CD8906EA05152C
:101B60002B4383808483CD888587028470BD0000E9
:101B7000002C0140003401400A460021818B4FF6C1
:101B8000F773194011438183704781847047028B3A
:101B90004FF6F3731A400283028B0A4302837047A5
:101BA000028B4FF2FF331A400283028B4FF6FF7312
:101BB00003EA01231A4302837047828B4FF6F373C3
:101BC0001A408283828B0A4382837047828B4FF252
:101BD000FF331A408283828B4FF6FF7303EA01239F
:101BE0001A43828370470000002202881D4B9842EE
:101BF0000ED01D4B98420BD0B0F1804F08D01B4B3C
:101C0000984205D01A4B984202D01A4B984204D100
:101C10004FF68F731A404B881A43174B984207D0E0
:101C2000164B984204D04FF6FF431A40CB881A4314
:101C300002808B8883850B8803850A4B98420BD0E2
:101C4000094B984208D00E4B984205D00D4B984254
:101C500002D00D4B984201D10B7A03860123838277
:101C600070470000002C0140003401400004004097
:101C700000080040000C004000100040001400402C
:101C800000400140004401400048014001F400725E
:101C9000B2F5007F00D100BFCA430280704721B176
:101CA000828942F40052828104E082894DF6FF73FA
:101CB0001A4082817047000010B5044620488442D3
:101CC00009D101218803FFF7D5FA00214FF48040A4
:101CD000FFF7D0FA32E01B48844209D101214804C1
:101CE000FFF7A8FA00214FF40030FFF7A3FA25E030
:101CF0001548844209D101218804FFF79BFA00218D
:101D00004FF48020FFF796FA18E01048844209D17A
:101D10000121C804FFF78EFA00214FF40020FFF7DD
:101D200089FA0BE00A48844208D101210805FFF72F
:101D300081FA00214FF48010FFF77CFA10BD0000FB
:101D4000003801400044004000480040004C004082
:101D50000050004002460020B1F5007F00D100BFD6
:101D600013880B400BB1012000E000207047F0B554
:101D70000346002400260025002040F66A17B942D9
:101D800000D100BF1846C1F3421401F01F0601271D
:101D900007FA06F5012C01D10C3004E0022C01D128
:101DA000103000E014301AB107682F43076002E0DA
:101DB0000768AF430760F0BD2DE9F04786B00546E0
:101DC0000E460024A24600BFA1460027B08900B1FC
:101DD00000BF2F462C8A4CF6FF700440F088044365
:101DE0002C82AC894EF6F3100440B0883189084348
:101DF000718908430443AC81AC8A4FF6FF4004402C
:101E0000B0890443AC8201A8FFF744FA1F48874217
:101E100002D1DDF810A001E0DDF80CA0A88900F4E3
:101E2000004040B10AEBCA0000EB0A1031684900DB
:101E3000B0FBF1F807E00AEBCA0000EB0A103168CA
:101E40008900B0FBF1F86420B8FBF0F00401200930
:101E5000642101FB1089A88900F4004040B13220C0
:101E600000EBC900B0FBF1F000F00700044308E00C
:101E7000322000EB09106421B0FBF1F000F00F00FC
:101E800004432C8106B0BDE8F08700000038014013
:101E9000C1F30802828070471FB50446244884427B
:101EA00004D101218803FFF7B5F90EE021488442EF
:101EB00004D101214804FFF7ADF906E01E48844231
:101EC00003D101218804FFF7A5F92046FFF7F4FEAE
:101ED0004FF4E13000900020ADF80C000C20ADF87C
:101EE0000A000020ADF80800ADF80600ADF80400C7
:101EF00069462046FFF760FF40F225512046FFF774
:101F0000C5FE40F227712046FFF7C0FE012240F2D5
:101F100025512046FFF72BFF012240F22771204672
:101F2000FFF725FF01212046FFF7B9FE1FBD000086
:101F300000380140004400400048004070B50446AD
:101F40000D4600BF40212046FFF704FF0028F9D0CE
:101F500029462046FFF79CFF70BD70B505460C462C
:101F600004E021782846FFF7E9FF641C2078002868
:101F7000F7D170BD00BFFEE70FB4084B10B504A940
:101F800002AA039800F01CF8044602A9002000F001
:101F9000C1F8204610BC5DF814FB000015210008B4
:101FA00002E008C8121F08C1002AFAD17047704722
:101FB000002001E001C1121F002AFBD17047000080
:101FC0002DE9FF4F89B09B460446002506E02528F1
:101FD0000BD05A460B999047641C6D1C2078002842
:101FE000F5D10DB02846BDE8F08F0027B846012294
:101FF000474900E0074314F8013F203B02FA03F091
:102000000842F7D120782E2819D114F8010F47F093
:1020100004072A280ED06FF02F022078A0F130019B
:1020200009290CD808EB880102EB410100EB0108FB
:10203000641CF2E70A98641C50F8048B0A9020781C
:102040000028CED0642808D0692806D075281ED074
:102050005A460B9990476D1C58E00A994FF00A09AF
:1020600001C90A91002802DA40422D2102E0390517
:1020700004D52B218DF82010012103E0F90704D0AD
:102080002021F7E78A4608AE0DE00021FAE70A9919
:102090004FF00A0901C90A91F7E74946FEF76FFABE
:1020A000303106F8011D0028F7D1ADEB060000F134
:1020B0002009780701D44FF00108C84502DDA8EBDC
:1020C000090000E000208046002706E008A85A46E4
:1020D000C05D0B9990476D1C7F1C5745F6DB04E0F3
:1020E00030205A460B9990476D1CB8F10001A8F1B9
:1020F0000108F5DC05E016F8010B5A460B999047EC
:102100006D1CB9F10001A9F10109F4DC641C65E75B
:10211000092801000A68531C0B6010707047F8B55D
:102120000446002504F0F006F02000EA041746F00B
:1021300004008DF800008DF8016047F004008DF870
:10214000020047F008008DF8030000BF05E01DF80D
:10215000050000F029F8681CC5B2042DF7DBF8BDB6
:10216000F8B50446002504F0F006F02000EA041754
:1021700046F00D008DF8000046F009008DF80100D2
:1021800047F00D008DF8020047F009008DF80300BC
:1021900000BF05E01DF8050000F006F8681CC5B298
:1021A000042DF7DBF8BD000010B5044601211348EB
:1021B000FEF7CBFD00BF12491048FEF7A5FD002831
:1021C000F9D000224E210D48FEF782FE00BF0D49D6
:1021D0000A48FEF799FD0028F9D021460748FEF786
:1021E00080FE00BF0749891C0448FEF78DFD0028CA
:1021F000F8D001210148FEF7B4FD10BD00540040A5
:10220000010003008200070070B504460D46012C52
:1022100004D104F17F002844C6B204E005F1400077
:10222000C0B240F080063046FFF779FF70BD10B5B0
:102230003320FFF774FF0A20FEF792FA3220FFF7EF
:102240006EFF3220FEF78CFA2820FFF768FF32205D
:10225000FEF786FA0120FFF762FF3220FEF780FAD0
:102260000620FFF75CFF3220FEF77AFA0C20FFF71A
:1022700056FF3220FEF774FA0220FFF750FF32209B
:10228000FEF76EFA10BD10B5044603E014F8010B1A
:10229000FFF766FF20780028F8D110BDFEF7CAFCD2
:1022A0004248FFF7F9FDFEF7D3FEFEF7EDFBFEF720
:1022B00061FAFEF7A9FBFEF777FBFEF7EDFE0220C1
:1022C000FEF758FF0220FEF783FF394800684FF4FD
:1022D0007A72B0FBF2F1B1F1807F00D31DE021F002
:1022E0007F40401E4FF0E022506150170F2200281F
:1022F00007DA13071D0E2F4B00F00F04241F1D5586
:1023000003E013071C0E2C4B1C5400BF00204FF0A1
:10231000E02290610720106100BFFEF7A5FDFFF7E6
:1023200086FF00210120FFF76FFF24A0FFF7ABFF1E
:1023300000210220FFF768FF23A0FFF7A4FF25A1DB
:102340001A48FFF70AFE2FE02448007814282BDBF8
:10235000234824A102682448FFF70EFE0A21012029
:10236000FFF752FF21A0FFF78EFF0A210120FFF7A0
:102370004BFF1D48FFF787FF1E48026819A11E4842
:10238000FFF7FAFD0B210220FFF73EFF17A0FFF732
:102390007AFF0B210220FFF737FF1748FFF773FF83
:1023A0004FF47A70FEF7DCF9CEE7000000480040F9
:1023B0002000002018ED00E000E400E05345542028
:1023C00053504545443A00005245414C2053504536
:1023D00045443A000A0D4343570A0D0014000020FB
:1023E0001800002025640000140100202020202077
:1023F00020200000100000203C0100201C240008C8
:1024000000000020E0000000A01F0008FC240008DD
:10241000E000002088040000B01F00080000000059
:1024200000000000000000000000000000000000AC
:1024300000000000000000000000000000A24A04AC
:102440000000000000000000010203040607080964
:10245000000000000102030401020304060708094A
:102460000204060800000000000000000000000058
:10247000000000000000000000000000000000005C
:10248000000000000000000000000000000000004C
:1024900000000000000000000000F03F7B14AE4789
:1024A000E17A843F0000000000000000000000000E
:1024B000000000000000000000000000000000001C
:1024C000000000000000000000000000000000000C
:1024D00000000000000000000000000000000000FC
:1024E00000000000000000000000000000000000EC
:0C24F000000000000000000000000000E0
:04000005080000ED02
:00000001FF
